{
  "contractName": "MyContract",
  "abi": [
    {
      "constant": true,
      "inputs": [],
      "name": "resultReceived",
      "outputs": [
        {
          "name": "",
          "type": "bool"
        }
      ],
      "payable": false,
      "stateMutability": "view",
      "type": "function"
    },
    {
      "constant": true,
      "inputs": [],
      "name": "result",
      "outputs": [
        {
          "name": "",
          "type": "int256"
        }
      ],
      "payable": false,
      "stateMutability": "view",
      "type": "function"
    },
    {
      "inputs": [
        {
          "name": "_link",
          "type": "address"
        },
        {
          "name": "_oracle",
          "type": "address"
        },
        {
          "name": "_jobId",
          "type": "bytes32"
        },
        {
          "name": "_oraclePaymentAmount",
          "type": "uint256"
        }
      ],
      "payable": false,
      "stateMutability": "nonpayable",
      "type": "constructor"
    },
    {
      "anonymous": false,
      "inputs": [
        {
          "indexed": true,
          "name": "id",
          "type": "bytes32"
        }
      ],
      "name": "ChainlinkRequested",
      "type": "event"
    },
    {
      "anonymous": false,
      "inputs": [
        {
          "indexed": true,
          "name": "id",
          "type": "bytes32"
        }
      ],
      "name": "ChainlinkFulfilled",
      "type": "event"
    },
    {
      "anonymous": false,
      "inputs": [
        {
          "indexed": true,
          "name": "id",
          "type": "bytes32"
        }
      ],
      "name": "ChainlinkCancelled",
      "type": "event"
    },
    {
      "constant": false,
      "inputs": [
        {
          "name": "low",
          "type": "string"
        },
        {
          "name": "high",
          "type": "string"
        }
      ],
      "name": "makeRequest",
      "outputs": [
        {
          "name": "requestId",
          "type": "bytes32"
        }
      ],
      "payable": false,
      "stateMutability": "nonpayable",
      "type": "function"
    },
    {
      "constant": false,
      "inputs": [],
      "name": "resetResult",
      "outputs": [],
      "payable": false,
      "stateMutability": "nonpayable",
      "type": "function"
    },
    {
      "constant": false,
      "inputs": [
        {
          "name": "_requestId",
          "type": "bytes32"
        },
        {
          "name": "_result",
          "type": "int256"
        }
      ],
      "name": "fulfill",
      "outputs": [],
      "payable": false,
      "stateMutability": "nonpayable",
      "type": "function"
    }
  ],
  "bytecode": "0x6080604052600160045534801561001557600080fd5b5060405160808061122c8339810180604052810190808051906020019092919080519060200190929190805190602001909291908051906020019092919050505061006e846100a1640100000000026401000000009004565b610086836100e5640100000000026401000000009004565b81600781600019169055508060068190555050505050610129565b80600260006101000a81548173ffffffffffffffffffffffffffffffffffffffff021916908373ffffffffffffffffffffffffffffffffffffffff16021790555050565b80600360006101000a81548173ffffffffffffffffffffffffffffffffffffffff021916908373ffffffffffffffffffffffffffffffffffffffff16021790555050565b6110f4806101386000396000f30060806040526004361061006d576000357c0100000000000000000000000000000000000000000000000000000000900463ffffffff168063456cf2f2146100725780634cd38cc21461008957806365372147146100b8578063bda71d04146100e3578063dba2a8af1461011e575b600080fd5b34801561007e57600080fd5b5061008761018d565b005b34801561009557600080fd5b5061009e6101b2565b604051808215151515815260200191505060405180910390f35b3480156100c457600080fd5b506100cd6101c5565b6040518082815260200191505060405180910390f35b3480156100ef57600080fd5b5061011c6004803603810190808035600019169060200190929190803590602001909291905050506101cb565b005b34801561012a57600080fd5b5061016f600480360381019080803590602001908201803590602001919091929391929390803590602001908201803590602001919091929391929390505050610366565b60405180826000191660001916815260200191505060405180910390f35b6000600860006101000a81548160ff0219169083151502179055506000600981905550565b600860009054906101000a900460ff1681565b60095481565b8160056000826000191660001916815260200190815260200160002060009054906101000a900473ffffffffffffffffffffffffffffffffffffffff1673ffffffffffffffffffffffffffffffffffffffff163373ffffffffffffffffffffffffffffffffffffffff161415156102d0576040517f08c379a00000000000000000000000000000000000000000000000000000000081526004018080602001828103825260288152602001807f536f75726365206d75737420626520746865206f7261636c65206f662074686581526020017f207265717565737400000000000000000000000000000000000000000000000081525060400191505060405180910390fd5b60056000826000191660001916815260200190815260200160002060006101000a81549073ffffffffffffffffffffffffffffffffffffffff021916905580600019167f7cc135e0cebb02c3480ae5d74d377283180a2601f8f644edf7987b009316c63a60405160405180910390a26001600860006101000a81548160ff02191690831515021790555081600981905550505050565b6000610370611026565b6103a06007543063bda71d047c010000000000000000000000000000000000000000000000000000000002610538565b905061041e6040805190810160405280600381526020017f6c6f77000000000000000000000000000000000000000000000000000000000081525087878080601f016020809104026020016040519081016040528093929190818152602001838380828437820191505050505050836105699092919063ffffffff16565b61049a6040805190810160405280600481526020017f686967680000000000000000000000000000000000000000000000000000000081525085858080601f016020809104026020016040519081016040528093929190818152602001838380828437820191505050505050836105699092919063ffffffff16565b6105196040805190810160405280600881526020017f636f7079506174680000000000000000000000000000000000000000000000008152506040805190810160405280600d81526020017f72616e646f6d5f6e756d62657200000000000000000000000000000000000000815250836105699092919063ffffffff16565b61052d61052461059c565b826006546105c6565b915050949350505050565b610540611026565b610548611026565b61055f85858584610952909392919063ffffffff16565b9150509392505050565b610580828460800151610a0c90919063ffffffff16565b610597818460800151610a0c90919063ffffffff16565b505050565b6000600360009054906101000a900473ffffffffffffffffffffffffffffffffffffffff16905090565b600030600454604051602001808373ffffffffffffffffffffffffffffffffffffffff1673ffffffffffffffffffffffffffffffffffffffff166c01000000000000000000000000028152601401828152602001925050506040516020818303038152906040526040518082805190602001908083835b602083101515610662578051825260208201915060208101905060208303925061063d565b6001836020036101000a038019825116818451168082178552505050505050905001915050604051809103902090506004548360600181815250508360056000836000191660001916815260200190815260200160002060006101000a81548173ffffffffffffffffffffffffffffffffffffffff021916908373ffffffffffffffffffffffffffffffffffffffff16021790555080600019167fb5e6e01e79f91267dc17b4e6314d5d4d03593d2ceee0fbb452b750bd70ea5af960405160405180910390a2600260009054906101000a900473ffffffffffffffffffffffffffffffffffffffff1673ffffffffffffffffffffffffffffffffffffffff16634000aea0858461077187610a31565b6040518463ffffffff167c0100000000000000000000000000000000000000000000000000000000028152600401808473ffffffffffffffffffffffffffffffffffffffff1673ffffffffffffffffffffffffffffffffffffffff16815260200183815260200180602001828103825283818151815260200191508051906020019080838360005b838110156108145780820151818401526020810190506107f9565b50505050905090810190601f1680156108415780820380516001836020036101000a031916815260200191505b50945050505050602060405180830381600087803b15801561086257600080fd5b505af1158015610876573d6000803e3d6000fd5b505050506040513d602081101561088c57600080fd5b81019080805190602001909291905050501515610937576040517f08c379a00000000000000000000000000000000000000000000000000000000081526004018080602001828103825260238152602001807f756e61626c6520746f207472616e73666572416e6443616c6c20746f206f726181526020017f636c65000000000000000000000000000000000000000000000000000000000081525060400191505060405180910390fd5b60016004600082825401925050819055508090509392505050565b61095a611026565b61096a8560800151610100610c5c565b50838560000190600019169081600019168152505082856020019073ffffffffffffffffffffffffffffffffffffffff16908173ffffffffffffffffffffffffffffffffffffffff16815250508185604001907bffffffffffffffffffffffffffffffffffffffffffffffffffffffff191690817bffffffffffffffffffffffffffffffffffffffffffffffffffffffff191681525050849050949350505050565b610a198260038351610cb6565b610a2c8183610e1490919063ffffffff16565b505050565b6060600360009054906101000a900473ffffffffffffffffffffffffffffffffffffffff1673ffffffffffffffffffffffffffffffffffffffff16634042994690507c01000000000000000000000000000000000000000000000000000000000260008084600001518560200151866040015187606001516001896080015160000151604051602401808973ffffffffffffffffffffffffffffffffffffffff1673ffffffffffffffffffffffffffffffffffffffff16815260200188815260200187600019166000191681526020018673ffffffffffffffffffffffffffffffffffffffff1673ffffffffffffffffffffffffffffffffffffffff168152602001857bffffffffffffffffffffffffffffffffffffffffffffffffffffffff19167bffffffffffffffffffffffffffffffffffffffffffffffffffffffff1916815260200184815260200183815260200180602001828103825283818151815260200191508051906020019080838360005b83811015610bbf578082015181840152602081019050610ba4565b50505050905090810190601f168015610bec5780820380516001836020036101000a031916815260200191505b509950505050505050505050604051602081830303815290604052907bffffffffffffffffffffffffffffffffffffffffffffffffffffffff19166020820180517bffffffffffffffffffffffffffffffffffffffffffffffffffffffff83818316178352505050509050919050565b610c64611094565b6000602083811515610c7257fe5b06141515610c8f57602082811515610c8657fe5b06602003820191505b81836020018181525050604051808452600081528281016020016040525082905092915050565b601781111515610ce857610ce28160058460ff169060020a0260ff161784610e3690919063ffffffff16565b50610e0f565b60ff81111515610d2f57610d12601860058460ff169060020a021784610e3690919063ffffffff16565b50610d2981600185610e569092919063ffffffff16565b50610e0e565b61ffff81111515610d7757610d5a601960058460ff169060020a021784610e3690919063ffffffff16565b50610d7181600285610e569092919063ffffffff16565b50610e0d565b63ffffffff81111515610dc157610da4601a60058460ff169060020a021784610e3690919063ffffffff16565b50610dbb81600485610e569092919063ffffffff16565b50610e0c565b67ffffffffffffffff81111515610e0b57610df2601b60058460ff169060020a021784610e3690919063ffffffff16565b50610e0981600885610e569092919063ffffffff16565b505b5b5b5b5b505050565b610e1c611094565b610e2e83846000015151848551610e78565b905092915050565b610e3e611094565b610e4e8384600001515184610f35565b905092915050565b610e5e611094565b610e6f848560000151518585610f85565b90509392505050565b610e80611094565b600080600085518511151515610e9557600080fd5b87602001518588011115610ec057610ebf886002610eb98b602001518b8a01610fe6565b02611002565b5b875180518860208301019450808988011115610edc5788870182525b60208801935050505b602085101515610f0a5781518352602083019250602082019150602085039450610ee5565b6001856020036101000a03905080198251168184511681811785525050879350505050949350505050565b610f3d611094565b836020015183101515610f5c57610f5b846002866020015102611002565b5b8351805160208583010184815381861415610f78576001820183525b5050508390509392505050565b610f8d611094565b600085602001518584011115610fad57610fac86600287860102611002565b5b6001836101000a0390508551838682010185831982511617815281518588011115610fd85784870182525b505085915050949350505050565b600081831115610ff857829050610ffc565b8190505b92915050565b6060826000015190506110158383610c5c565b506110208382610e14565b50505050565b60c06040519081016040528060008019168152602001600073ffffffffffffffffffffffffffffffffffffffff16815260200160007bffffffffffffffffffffffffffffffffffffffffffffffffffffffff191681526020016000815260200161108e6110ae565b81525090565b604080519081016040528060608152602001600081525090565b6040805190810160405280606081526020016000815250905600a165627a7a72305820f3c8fd8b3a86d78502e0d983963dd55843db018d5edd754cb71bb4f9e11522310029",
  "source": "pragma solidity 0.4.24;\n\nimport \"../node_modules/chainlink/contracts/ChainlinkClient.sol\";\n\ncontract MyContract is ChainlinkClient{\n    uint256 private oraclePaymentAmount;\n    bytes32 private jobId;\n\n    bool public resultReceived;\n    int256 public result;\n\n    constructor(\n        address _link,\n        address _oracle,\n        bytes32 _jobId,\n        uint256 _oraclePaymentAmount\n        )\n    public\n    {\n        setChainlinkToken(_link);\n        setChainlinkOracle(_oracle);\n        jobId = _jobId;\n        oraclePaymentAmount = _oraclePaymentAmount;\n    }\n\n    function makeRequest(string low, string high) external returns (bytes32 requestId)\n    {\n        Chainlink.Request memory req = buildChainlinkRequest(jobId, this, this.fulfill.selector);\n        req.add(\"low\", low);\n        req.add(\"high\", high);\n        req.add(\"copyPath\", \"random_number\");\n        requestId = sendChainlinkRequestTo(chainlinkOracleAddress(), req, oraclePaymentAmount);\n    }\n\n    function resetResult() external\n    {\n        resultReceived = false;\n        result = 0;\n    }\n\n    function fulfill(bytes32 _requestId, int256 _result)\n    public\n    recordChainlinkFulfillment(_requestId)\n    {\n        resultReceived = true;\n        result = _result;\n    }\n}\n",
  "sourcePath": "/home/burak/git/workshop-honeycomb-react/contracts/MyContract.sol",
  "compiler": {
    "name": "solc",
    "version": "0.4.24+commit.e67f0147.Emscripten.clang"
  },
  "schemaVersion": "3.0.16",
  "updatedAt": "2019-11-28T02:40:06.844Z",
  "devdoc": {
    "methods": {}
  },
  "userdoc": {
    "methods": {}
  }
}